:020000040000FA
:100000000C945E000C9486000C9486000C94860080
:100010000C9486000C9486000C9486000C94860048
:100020000C9486000C9486000C9486000C949A0321
:100030000C9486000C9486000C9486000C94860028
:100040000C94F8020C9486000C9468030C94420300
:100050000C9486000C9486000C9486000C94860008
:100060000C9486000C948600000000080002010039
:100070000003040700000000000000000000000072
:10008000250028002B0000000000240027002A0083
:10009000040404040404040402020202020203032E
:1000A0000303030301020408102040800102040836
:1000B0001020010204081020D603FF0511241FBEE2
:1000C000CFEFD8E0DEBFCDBF22E0ACE7B1E001C0AA
:1000D0001D92A433B207E1F711E0A0E0B1E0ECEC2F
:1000E000F0E102C005900D92AC37B107D9F710E0EE
:1000F000CDE5D0E004C02197FE010E946106CC3519
:10010000D107C9F70E944A040C9459080C940000C6
:1001100090E0FC01EC55FF4F249180579F4FFC016C
:100120008491882399F090E0880F991FFC01EA5789
:10013000FF4FA591B491FC01E458FF4F8591949134
:100140008FB7F894EC91E22BEC938FBF089590E079
:10015000FC01E859FF4F2491FC01EC55FF4F34910D
:10016000FC01E057FF4FE491EE23C9F0222339F060
:10017000233001F1A8F4213019F1223029F1F0E007
:10018000EE0FFF1FE458FF4FA591B4918FB7F8947D
:10019000EC91611126C030953E233C938FBF0895AA
:1001A0002730A9F02830C9F0243049F78091800029
:1001B0008F7D03C0809180008F7780938000DFCF98
:1001C00084B58F7784BDDBCF84B58F7DFBCF8091E5
:1001D000B0008F778093B000D2CF8091B0008F7D38
:1001E000F9CF3E2BDACF3FB7F894809189019091F7
:1001F0008A01A0918B01B0918C0126B5A89B05C006
:100200002F3F19F00196A11DB11D3FBFBA2FA92F95
:10021000982F8827BC01CD01620F711D811D911D92
:1002200042E0660F771F881F991F4A95D1F70895FE
:100230008F929F92AF92BF92CF92DF92EF92FF92F6
:100240000E94F3004B015C0184E6C82ED12CE12C06
:10025000F12C0E94F300681979098A099B09683E0C
:10026000734081059105A8F321E0C21AD108E10885
:10027000F10888EE880E83E0981EA11CB11CC11401
:10028000D104E104F10429F7FF90EF90DF90CF90C3
:10029000BF90AF909F908F900895AF92BF92CF92F2
:1002A000DF92EF92FF920F931F93CF93DF936C0136
:1002B0007B018B01040F151FEB015E01AE18BF0817
:1002C000C017D10759F06991D601ED91FC910190C9
:1002D000F081E02DC6010995892B79F7C501DF91E1
:1002E000CF911F910F91FF90EF90DF90CF90BF9033
:1002F000AF900895FC01538D448D252F30E0842F5D
:1003000090E0821B930B541710F0CF96089501973D
:100310000895FC01918D828D981761F0A28DAE0F2A
:10032000BF2FB11D5D968C91928D9F5F9F73928FB1
:1003300090E008958FEF9FEF0895FC01918D828DDD
:10034000981731F0828DE80FF11D858D90E00895AA
:100350008FEF9FEF0895FC01918D228D892F90E002
:10036000805C9F4F821B91098F73992708958DE8B8
:1003700091E00E94AB0121E0892B09F420E0822F5B
:100380000895FC01A48DA80FB92FB11DA35ABF4F2A
:100390002C91848D90E001968F739927848FA68984
:1003A000B7892C93A089B1898C91837080648C93D8
:1003B000938D848D981306C00288F389E02D808187
:1003C0008F7D80830895EF92FF920F931F93CF93B9
:1003D000DF93EC0181E0888F9B8D8C8D98131AC080
:1003E000E889F989808185FF15C09FB7F894EE8967
:1003F000FF896083E889F9898081837080648083C4
:100400009FBF81E090E0DF91CF911F910F91FF900E
:10041000EF900895F62E0B8D10E00F5F1F4F0F73B6
:100420001127E02E8C8D8E110CC00FB607FCFACF71
:10043000E889F989808185FFF5CFCE010E94C1014D
:10044000F1CFEB8DEC0FFD2FF11DE35AFF4FF08242
:100450009FB7F8940B8FEA89FB8980818062CFCFA8
:10046000CF93DF93EC01888D8823B9F0AA89BB89EB
:10047000E889F9898C9185FD03C0808186FD0DC0D6
:100480000FB607FCF7CF8C9185FFF2CF808185FFF7
:10049000EDCFCE010E94C101E9CFDF91CF91089548
:1004A00061E082E00E94A7000E94180160E082E003
:1004B0000C94A70061E084E00E94A7000E9418014C
:1004C00060E084E00C94A700FC0101900020E9F7B3
:1004D0003197AF01481B590BBC018DE891E00C949A
:1004E0004D01CF93DF930E946402EC0188E191E01B
:1004F0000E9464028C0F9D1FDF91CF910895CF93CE
:10050000DF93EC0180912A0290912B02009759F021
:1005100020912C0230912D022C173D0720F081E014
:10052000DF91CF910895BE016F5F7F4F0E948C07CE
:10053000009789F090932B0280932A02D0932D028A
:10054000C0932C0220912E0230912F02232B39F7D9
:10055000FC011082E4CF80E0E3CFEF92FF920F9393
:100560001F93CF93DF9300D0CDB7DEB7EE24E39493
:100570008DE891E00E94AB01892B59F18DE891E063
:100580000E948901F82E89831A8200912E0210910F
:100590002F020F5F1F4FC8010E947F02882399F02E
:1005A00020912A0230912B0280912E0290912F02ED
:1005B000BE016F5F7F4F820F931F0E9452081093FE
:1005C0002F0200932E028AE0F812D2CFE09283012C
:1005D000CFCF0F900F90DF91CF911F910F91FF9090
:1005E000EF9008950E94B70181110C94AD02089517
:1005F0001F920F920FB60F9211242F933F938F9358
:100600009F93AF93BF938091850190918601A091B4
:100610008701B09188013091840123E0230F2D37A9
:1006200058F50196A11DB11D209384018093850189
:1006300090938601A0938701B093880180918901EE
:1006400090918A01A0918B01B0918C010196A11D1E
:10065000B11D8093890190938A01A0938B01B0937F
:100660008C01BF91AF919F918F913F912F910F90EE
:100670000FBE0F901F90189526E8230F0296A11D1C
:10068000B11DD2CF1F920F920FB60F9211242F934C
:100690003F934F935F936F937F938F939F93AF930A
:1006A000BF93EF93FF938DE891E00E94C101FF910A
:1006B000EF91BF91AF919F918F917F916F915F91DA
:1006C0004F913F912F910F900FBE0F901F90189553
:1006D0001F920F920FB60F9211242F938F939F9317
:1006E000EF93FF93E0919D01F0919E018081E09155
:1006F000A301F091A40182FD1BC090818091A6010D
:100700008F5F8F732091A701821741F0E091A601BE
:10071000F0E0E357FE4F958F8093A601FF91EF9194
:100720009F918F912F910F900FBE0F901F90189552
:100730008081F4CF1F920F920FB60F9211242F9346
:100740003F934F935F936F937F938F939F93AF9359
:10075000BF93EF93FF9380917E0190917F0101966B
:1007600090937F0180937E0120917C0130917D01E7
:100770002817390754F486E591E00E9471020E941F
:10078000500280916F0010926F00FF91EF91BF9126
:10079000AF919F918F917F916F915F914F913F9119
:1007A0002F910F900FBE0F901F90189510929001EF
:1007B00010928F0188EE93E0A0E0B0E08093910169
:1007C00090939201A0939301B09394018AE091E0F9
:1007D00090938E0180938D0185EC90E090939A0127
:1007E0008093990184EC90E090939C0180939B010D
:1007F00080EC90E090939E0180939D0181EC90E0CD
:100800009093A00180939F0182EC90E09093A201CD
:100810008093A10186EC90E09093A4018093A301C2
:100820001092A6011092A7011092A8011092A9019E
:1008300010922B0210922A0210922D0210922C027A
:1008400010922F0210922E0290E080E00E947F0210
:1008500020912A0230912B02811113C021153105FC
:1008600019F0C9010E94030710922B0210922A026C
:1008700010922F0210922E0210922D0210922C0232
:10088000089510922F0210922E026AE171E0C901C0
:100890000C945208CF93DF93CDB7DEB7A1970FB674
:1008A000F894DEBF0FBECDBF789484B5826084BD5E
:1008B00084B5816084BD85B5826085BD85B5816064
:1008C00085BD80916E00816080936E0010928100E2
:1008D000809181008260809381008091810081609D
:1008E000809381008091800081608093800080915E
:1008F000B10084608093B1008091B00081608093EA
:10090000B00080917A00846080937A0080917A00B0
:10091000826080937A0080917A00816080937A006F
:1009200080917A00806880937A001092C100E091F3
:100930009D01F0919E0182E08083E0919901F09108
:100940009A011082E0919B01F0919C018FEC8083D1
:100950001092A501E091A101F091A20186E08083AF
:10096000E0919F01F091A001808180618083E091FE
:100970009F01F091A001808188608083E0919F01B8
:10098000F091A001808180688083E0919F01F091C7
:10099000A00180818F7D808384E00E94880082E0B6
:1009A0000E94880060E084E00E94A70060E082E08E
:1009B0000E94A7000E945002F894109280001092AA
:1009C0008100109285001092840089E09DE390934D
:1009D00089008093880080918100886080938100E5
:1009E000809181008460809381008091810081608A
:1009F0008093810078948BE191E00E94710282E4FF
:100A0000782E9AE0892E912CA12CB12C2AE0E22E8E
:100A1000F12C30E9C32EDD24D39480918301882307
:100A2000C1F180912E0290912F02892B31F0E0913B
:100A30002A02F0912B02309721F410928001E0E815
:100A4000F1E010811092830190E080E00E947F022B
:100A500020912A0230912B02811123C021153105EA
:100A600019F0C9010E94030710922B0210922A026A
:100A700010922F0210922E0210922D0210922C0230
:100A8000133509F483C0BCF41C3409F49BC01D3435
:100A9000E1F00E94B701882309F4BFCF0E94AD02A4
:100AA000BCCF10922F0210922E026AE171E0C901B0
:100AB0000E945208E5CF143509F49EC0183549F755
:100AC0000E94500282E591E07AC070927C00809191
:100AD0007A00806480937A0080917A0086FDFCCF52
:100AE00080917800909179009093820180938101A8
:100AF00082E291E00E9464022090810130908201A4
:100B0000032C000C4408550857FE2AC06DE28DE8FE
:100B100091E00E94E30122273327A901221933091A
:100B20004409550919A28E010F5D1F4FCA01B90171
:100B3000A50194010E943F06605DF80162938F0158
:100B4000211531054105510589F70115110519F0E8
:100B5000C8010E94640288E191E00E94640299CF7A
:100B6000A201910119A28E010F5D1F4FCA01B901A7
:100B7000A50194010E943F06605DF80162938F0118
:100B8000211531054105510589F7DFCF80916F00AF
:100B900010926F0010927F0110927E01F0927D0101
:100BA000E0927C0180916F00826080936F0085E20B
:100BB00091E00E9471020E945A0287E391E00E9434
:100BC000710267CF80916F0010926F0010927F01C9
:100BD00010927E01D0927D01C0927C0180916F00C5
:100BE000826080936F0089E391E00E9471020E940D
:100BF0005A0280E591E0E3CF84E591E0E0CF809177
:100C00002A0290912B02009711F00C94030708958B
:100C10002F923F924F925F926F927F928F929F920C
:100C2000AF92BF92CF92DF92EF92FF920F931F93FA
:100C3000CF93DF93CDB7DEB7CA1BDB0B0FB6F894AB
:100C4000DEBF0FBECDBF09942A88398848885F84EB
:100C50006E847D848C849B84AA84B984C884DF805C
:100C6000EE80FD800C811B81AA81B981CE0FD11D40
:100C70000FB6F894DEBF0FBECDBFED010895A1E21F
:100C80001A2EAA1BBB1BFD010DC0AA1FBB1FEE1F06
:100C9000FF1FA217B307E407F50720F0A21BB30B51
:100CA000E40BF50B661F771F881F991F1A9469F7CD
:100CB00060957095809590959B01AC01BD01CF0129
:100CC0000895EE0FFF1F0590F491E02D09940F9306
:100CD0001F93CF93DF938230910510F482E090E070
:100CE000E0913202F091330230E020E0B0E0A0E089
:100CF000309799F42115310509F44AC0281B390BA6
:100D000024303105D8F58A819B816115710589F1FF
:100D1000FB0193838283FE0111C0408151810281D6
:100D2000138148175907E0F04817590799F41097AD
:100D300061F012960C93129713961C933296CF0182
:100D4000DF91CF911F910F9108950093320210937C
:100D50003302F4CF2115310551F04217530738F013
:100D6000A901DB019A01BD01DF01F801C1CFEF014B
:100D7000F9CF9093330280933202CDCFFE01E20F80
:100D8000F31F819391932250310939832883D7CF60
:100D90002091300230913102232B41F42091020145
:100DA00030910301309331022093300220910001F1
:100DB000309101012115310541F42DB73EB7409125
:100DC000040150910501241B350BE0913002F09194
:100DD0003102E217F307A0F42E1B3F0B2817390747
:100DE00078F0AC014E5F5F4F2417350748F04E0F87
:100DF0005F1F5093310240933002819391939FCFB4
:100E0000F0E0E0E09CCFCF93DF930097E9F0FC01A6
:100E1000329713821282A0913202B0913302ED0117
:100E200030E020E01097A1F420813181820F931FE0
:100E300020913002309131022817390709F061C042
:100E4000F0933102E0933002DF91CF910895EA01EF
:100E5000CE17DF07E8F54A815B819E0141155105F8
:100E6000B1F7E901FB83EA8349915991C40FD51F7A
:100E7000EC17FD0761F4808191810296840F951F24
:100E8000E90199838883828193819B838A83F0E03F
:100E9000E0E012968D919C9113970097B9F52D91F2
:100EA0003C911197CD010296820F931F2091300241
:100EB000309131022817390739F6309751F51092E1
:100EC000330210923202B0933102A0933002BCCFB1
:100ED000D383C28340815181840F951FC817D907DE
:100EE00061F44E5F5F4F88819981480F591F51838C
:100EF00040838A819B81938382832115310509F088
:100F0000B0CFF0933302E09332029ECFFD01DC01BB
:100F1000C0CF13821282D7CFB0E0A0E0E2E9F7E0C1
:100F20000C940A068C01009751F4CB010E946706CD
:100F30008C01C801CDB7DEB7E0E10C942606FC01B8
:100F4000E60FF71F9C0122503109E217F30708F45E
:100F50009DC0D901CD91DC911197C617D70798F0A4
:100F6000C530D10530F3CE0104978617970708F3F3
:100F7000C61BD70B2297C193D1936D937C93CF015E
:100F80000E940307D6CF5B01AC1ABD0A4C018C0E40
:100F90009D1EA0913202B0913302512C412CF12CB4
:100FA000E12C109731F58091300290913102881533
:100FB000990509F05CC04616570608F058C08091A4
:100FC000000190910101009741F48DB79EB74091C7
:100FD000040150910501841B950BE817F90708F0EF
:100FE00055C0F0933102E0933002F90171836083C0
:100FF000A0CF8D919C91119712966C901297139699
:101000007C901397A815B90559F56C0142E0C40E00
:10101000D11CCA14DB0420F1AC014A195B09DA01C6
:101020001296159780F06282738251834083D901B2
:101030006D937C93E114F10471F0D7011396FC9346
:10104000EE93129776CF22968C0F9D1FF901918314
:101050008083F301EFCFF0933302E093320269CF44
:101060004816590608F42C017D01D3019ACFCB0113
:101070000E9467067C01009749F0AE01B8010E940A
:101080004908C8010E940307870153CF10E000E020
:1010900050CFFB01DC0102C001900D924150504045
:1010A000D8F70895FB01DC0101900D920020E1F7D3
:1010B000089510E0CDE5D0E004C0FE010E94610675
:1010C0002196CE35D107C9F7F894FFCF000034023E
:1010D000800000000000E3014D017A013002AB0105
:1010E00089019D010D0A004F4E4C494E45004D3A75
:1010F000005354415254494E47204558504F535580
:1011000052450053005354415254494E47204C4FCE
:101110004E47204558504F53555245004C005800FB
:1011200054004558504F535552452054494D452081
:1011300045584345444544205455524E494E472056
:081140004F46462E2E2E000042
:107800000C94343C0C94513C0C94513C0C94513CE1
:107810000C94513C0C94513C0C94513C0C94513CB4
:107820000C94513C0C94513C0C94513C0C94513CA4
:107830000C94513C0C94513C0C94513C0C94513C94
:107840000C94513C0C94513C0C94513C0C94513C84
:107850000C94513C0C94513C0C94513C0C94513C74
:107860000C94513C0C94513C11241FBECFEFD8E036
:10787000DEBFCDBF11E0A0E0B1E0ECE9FFE702C060
:1078800005900D92A230B107D9F712E0A2E0B1E065
:1078900001C01D92AD30B107E1F70E942D3D0C945F
:1078A000CC3F0C94003C982F959595959595959582
:1078B000905D8F708A307CF0282F295A8091C0000B
:1078C00085FFFCCF9093C6008091C00085FFFCCF60
:1078D0002093C6000895282F205DF0CF982F809127
:1078E000C00085FFFCCF9093C6000895EF92FF92F1
:1078F0000F931F93EE24FF2487018091C00087FD22
:1079000017C00894E11CF11C011D111D81E4E8164B
:1079100082E4F8068FE0080780E0180770F3E09132
:107920000401F091050109958091C00087FFE9CF1E
:107930008091C6001F910F91FF90EF9008950E94D3
:10794000763C982F8091C00085FFFCCF9093C600B5
:1079500091362CF490330CF09053892F089597555D
:10796000892F08951F930E949F3C182F0E949F3CCF
:107970001295107F810F1F9108951F93182F882350
:1079800021F00E94763C1150E1F71F9108951F935A
:10799000182F0E94763C803249F0809103018F5F5E
:1079A000809303018530C1F01F9108958091C0003C
:1079B00085FFFCCF84E18093C6008091C00085FFE5
:1079C000FCCF1093C6008091C00085FFFCCF80E102
:1079D0008093C6001F910895E0910401F091050184
:1079E00009951F9108950E94763C803241F0809164
:1079F00003018F5F80930301853081F008958091AA
:107A0000C00085FFFCCF84E18093C6008091C00058
:107A100085FFFCCF80E18093C6000895E0910401CA
:107A2000F09105010995089540E951E08823A1F0FE
:107A30002D9A28EE33E0FA013197F1F721503040CA
:107A4000D1F72D9828EE33E0FA013197F1F7215064
:107A50003040D1F7815061F708953F924F925F9285
:107A60006F927F928F929F92AF92BF92CF92DF924E
:107A7000EF92FF920F931F93CF93DF93000080E16B
:107A80008093C4001092C50088E18093C10086E015
:107A90008093C2005098589A259A81E00E94143D24
:107AA00024E1F22E9EE1E92E85E9D82E0FE0C02ECA
:107AB00010E1B12EAA24A394B1E49B2EA6E58A2E50
:107AC000F2E57F2EE0E26E2E79E4572E63E5462E36
:107AD00050E5352E0E94763C8033B1F18133B9F107
:107AE000803409F46FC0813409F476C0823409F41B
:107AF00085C0853409F488C0803531F1823521F1A3
:107B0000813511F1853509F485C0863509F48DC0BC
:107B1000843609F496C0843709F403C1853709F423
:107B200072C1863709F466C0809103018F5F80932C
:107B30000301853079F6E0910401F0910501099582
:107B40000E94763C803351F60E94F33CC3CF0E94E2
:107B5000763C803249F78091C00085FFFCCFF092DF
:107B6000C6008091C00085FFFCCF9092C600809136
:107B7000C00085FFFCCF8092C6008091C00085FFC9
:107B8000FCCF7092C6008091C00085FFFCCF609250
:107B9000C6008091C00085FFFCCF5092C600809146
:107BA000C00085FFFCCF4092C6008091C00085FFD9
:107BB000FCCF3092C6008091C00085FFFCCFB09210
:107BC000C60088CF0E94763C863808F4BDCF0E945C
:107BD000763C0E94F33C7ECF0E94763C803809F4CC
:107BE0009CC0813809F40BC1823809F43CC1883942
:107BF00009F48FC080E00E94C73C6CCF84E10E94F2
:107C0000BD3C0E94F33C66CF85E00E94BD3C0E94D3
:107C1000F33C60CF0E94763C809306010E94763C44
:107C2000809307010E94F33C55CF0E94763C80333D
:107C300009F41DC183E00E94BD3C80E00E94C73C66
:107C400049CF0E94763C809309020E94763C809343
:107C5000080280910C028E7F80930C020E94763C79
:107C6000853409F415C18091080290910902892B8D
:107C700089F000E010E00E94763CF801E85FFE4FDA
:107C800080830F5F1F4F80910802909109020817AF
:107C9000190788F30E94763C803209F045CF809125
:107CA0000C0280FF01C16091060170910701660F0F
:107CB000771F7093070160930601A0910802B091AD
:107CC00009021097C9F0E8E0F1E09B01AD014E0F09
:107CD0005F1FF999FECF32BD21BD819180BDFA9A17
:107CE000F99A2F5F3F4FE417F50799F76A0F7B1F4B
:107CF00070930701609306018091C00085FFFCCF5F
:107D0000F092C6008091C00085FFFCCFB092C60003
:107D1000E1CE83E00E94C73CDDCE82E00E94C73CFA
:107D2000D9CE0E94763C809309020E94763C8093D3
:107D300008028091060190910701880F991F909386
:107D40000701809306010E94763C853409F4A6C0A1
:107D500080910C028E7F80930C020E94763C8032D0
:107D600009F0B8CE8091C00085FFFCCFF092C6002C
:107D7000609108027091090261157105B9F140E046
:107D800050E080910C02A82FA170B82FB27011C0E2
:107D9000BB2309F45CC0E0910601F0910701319624
:107DA000F0930701E09306014F5F5F4F46175707B7
:107DB000E8F4AA2369F3F999FECF209106013091E6
:107DC000070132BD21BDF89A90B58091C00085FFB2
:107DD000FCCF9093C6002F5F3F4F30930701209355
:107DE00006014F5F5F4F4617570718F38091C00099
:107DF00085FDE5CE8091C00085FFF8CFE0CE81E023
:107E00000E94C73C67CE0E94763C803209F08CCE3F
:107E10008091C00085FFFCCFF092C6008091C00029
:107E200085FFFCCFE092C6008091C00085FFFCCFAB
:107E3000D092C6008091C00085FFFCCFC092C600E2
:107E40008091C00085FFFCCFB092C60043CEE09188
:107E50000601F091070194918091C00085FFFCCF4D
:107E60009093C6009CCF80E10E94C73C33CE0E9415
:107E7000763C0E94763C182F0E94763C112309F430
:107E800083C0113009F484C08FE00E94C73C22CE29
:107E900080910C02816080930C02E5CE80910C02EF
:107EA000816080930C0259CF809107018823880F4D
:107EB000880B8A2180930B02809106019091070123
:107EC000880F991F90930701809306018091080203
:107ED00080FF09C080910802909109020196909359
:107EE000090280930802F894F999FECF1127E091D6
:107EF0000601F0910701C8E0D1E08091080290915D
:107F00000902103091F40091570001700130D9F34B
:107F100003E000935700E89500915700017001308D
:107F2000D9F301E100935700E89509901990009169
:107F3000570001700130D9F301E000935700E89534
:107F40001395103498F011270091570001700130FB
:107F5000D9F305E000935700E895009157000170B0
:107F60000130D9F301E100935700E895329602976A
:107F700009F0C7CF103011F00296E5CF112480919F
:107F8000C00085FFB9CEBCCE8EE10E94C73CA2CD19
:0E7F900085E90E94C73C9ECDF894FFCF80008B
:00000001FF
