:100000000C945E000C9486000C9486000C94860080
:100010000C9486000C9486000C9486000C94860048
:100020000C9486000C9486000C9486000C949A0321
:100030000C9486000C9486000C9486000C94860028
:100040000C94F8020C9486000C9468030C94420300
:100050000C9486000C9486000C9486000C94860008
:100060000C9486000C948600000000080002010039
:100070000003040700000000000000000000000072
:10008000250028002B0000000000240027002A0083
:10009000040404040404040402020202020203032E
:1000A0000303030301020408102040800102040836
:1000B0001020010204081020D603FB0511241FBEE6
:1000C000CFEFD8E0DEBFCDBF22E0A4E7B1E001C0B2
:1000D0001D92AC32B207E1F711E0A0E0B1E0E4EC30
:1000E000F0E102C005900D92A437B107D9F710E0F6
:1000F000CDE5D0E004C02197FE010E945D06CC351D
:10010000D107C9F70E944A040C9455080C940000CA
:1001100090E0FC01EC55FF4F249180579F4FFC016C
:100120008491882399F090E0880F991FFC01EA5789
:10013000FF4FA591B491FC01E458FF4F8591949134
:100140008FB7F894EC91E22BEC938FBF089590E079
:10015000FC01E859FF4F2491FC01EC55FF4F34910D
:10016000FC01E057FF4FE491EE23C9F0222339F060
:10017000233001F1A8F4213019F1223029F1F0E007
:10018000EE0FFF1FE458FF4FA591B4918FB7F8947D
:10019000EC91611126C030953E233C938FBF0895AA
:1001A0002730A9F02830C9F0243049F78091800029
:1001B0008F7D03C0809180008F7780938000DFCF98
:1001C00084B58F7784BDDBCF84B58F7DFBCF8091E5
:1001D000B0008F778093B000D2CF8091B0008F7D38
:1001E000F9CF3E2BDACF3FB7F894809181019091FF
:1001F0008201A0918301B091840126B5A89B05C01E
:100200002F3F19F00196A11DB11D3FBFBA2FA92F95
:10021000982F8827BC01CD01620F711D811D911D92
:1002200042E0660F771F881F991F4A95D1F70895FE
:100230008F929F92AF92BF92CF92DF92EF92FF92F6
:100240000E94F3004B015C0184E6C82ED12CE12C06
:10025000F12C0E94F300681979098A099B09683E0C
:10026000734081059105A8F321E0C21AD108E10885
:10027000F10888EE880E83E0981EA11CB11CC11401
:10028000D104E104F10429F7FF90EF90DF90CF90C3
:10029000BF90AF909F908F900895AF92BF92CF92F2
:1002A000DF92EF92FF920F931F93CF93DF936C0136
:1002B0007B018B01040F151FEB015E01AE18BF0817
:1002C000C017D10759F06991D601ED91FC910190C9
:1002D000F081E02DC6010995892B79F7C501DF91E1
:1002E000CF911F910F91FF90EF90DF90CF90BF9033
:1002F000AF900895FC01538D448D252F30E0842F5D
:1003000090E0821B930B541710F0CF96089501973D
:100310000895FC01918D828D981761F0A28DAE0F2A
:10032000BF2FB11D5D968C91928D9F5F9F73928FB1
:1003300090E008958FEF9FEF0895FC01918D828DDD
:10034000981731F0828DE80FF11D858D90E00895AA
:100350008FEF9FEF0895FC01918D228D892F90E002
:10036000805C9F4F821B91098F739927089585E8C0
:1003700091E00E94AB0121E0892B09F420E0822F5B
:100380000895FC01A48DA80FB92FB11DA35ABF4F2A
:100390002C91848D90E001968F739927848FA68984
:1003A000B7892C93A089B1898C91837080648C93D8
:1003B000938D848D981306C00288F389E02D808187
:1003C0008F7D80830895EF92FF920F931F93CF93B9
:1003D000DF93EC0181E0888F9B8D8C8D98131AC080
:1003E000E889F989808185FF15C09FB7F894EE8967
:1003F000FF896083E889F9898081837080648083C4
:100400009FBF81E090E0DF91CF911F910F91FF900E
:10041000EF900895F62E0B8D10E00F5F1F4F0F73B6
:100420001127E02E8C8D8E110CC00FB607FCFACF71
:10043000E889F989808185FFF5CFCE010E94C1014D
:10044000F1CFEB8DEC0FFD2FF11DE35AFF4FF08242
:100450009FB7F8940B8FEA89FB8980818062CFCFA8
:10046000CF93DF93EC01888D8823B9F0AA89BB89EB
:10047000E889F9898C9185FD03C0808186FD0DC0D6
:100480000FB607FCF7CF8C9185FFF2CF808185FFF7
:10049000EDCFCE010E94C101E9CFDF91CF91089548
:1004A00061E082E00E94A7000E94180160E082E003
:1004B0000C94A70061E084E00E94A7000E9418014C
:1004C00060E084E00C94A700FC0101900020E9F7B3
:1004D0003197AF01481B590BBC0185E891E00C94A2
:1004E0004D01CF93DF930E946402EC0188E191E01B
:1004F0000E9464028C0F9D1FDF91CF910895CF93CE
:10050000DF93EC018091220290912302009759F031
:1005100020912402309125022C173D0720F081E024
:10052000DF91CF910895BE016F5F7F4F0E948807D2
:10053000009789F09093230280932202D0932502A2
:10054000C09324022091260230912702232B39F7F1
:10055000FC011082E4CF80E0E3CFEF92FF920F9393
:100560001F93CF93DF9300D0CDB7DEB7EE24E39493
:1005700085E891E00E94AB01892B59F185E891E073
:100580000E948901F82E89831A8200912602109117
:1005900027020F5F1F4FC8010E947F02882399F036
:1005A000209122023091230280912602909127020D
:1005B000BE016F5F7F4F820F931F0E944E08109302
:1005C0002702009326028AE0F812D2CFE0927B0144
:1005D000CFCF0F900F90DF91CF911F910F91FF9090
:1005E000EF9008950E94B70181110C94AD02089517
:1005F0001F920F920FB60F9211242F933F938F9358
:100600009F93AF93BF9380917D0190917E01A091C4
:100610007F01B091800130917C0123E0230F2D37C1
:1006200058F50196A11DB11D20937C0180937D0199
:1006300090937E01A0937F01B0938001809181010E
:1006400090918201A0918301B09184010196A11D36
:10065000B11D8093810190938201A0938301B09397
:100660008401BF91AF919F918F913F912F910F90F6
:100670000FBE0F901F90189526E8230F0296A11D1C
:10068000B11DD2CF1F920F920FB60F9211242F934C
:100690003F934F935F936F937F938F939F93AF930A
:1006A000BF93EF93FF9385E891E00E94C101FF9112
:1006B000EF91BF91AF919F918F917F916F915F91DA
:1006C0004F913F912F910F900FBE0F901F90189553
:1006D0001F920F920FB60F9211242F938F939F9317
:1006E000EF93FF93E0919501F09196018081E09165
:1006F0009B01F0919C0182FD1BC0908180919E0125
:100700008F5F8F7320919F01821741F0E0919E01CE
:10071000F0E0EB57FE4F958F80939E01FF91EF9194
:100720009F918F912F910F900FBE0F901F90189552
:100730008081F4CF1F920F920FB60F9211242F9346
:100740003F934F935F936F937F938F939F93AF9359
:10075000BF93EF93FF93809176019091770101967B
:100760009093770180937601209174013091750107
:100770002817390754F48FE491E00E9471020E9417
:10078000500280916F0010926F00FF91EF91BF9126
:10079000AF919F918F917F916F915F914F913F9119
:1007A0002F910F900FBE0F901F90189510928801F7
:1007B0001092870188EE93E0A0E0B0E08093890179
:1007C00090938A01A0938B01B0938C018AE091E011
:1007D000909386018093850185EC90E0909392013F
:1007E0008093910184EC90E0909394018093930125
:1007F00080EC90E0909396018093950181EC90E0DD
:10080000909398018093970182EC90E090939A01E5
:100810008093990186EC90E090939C0180939B01DA
:1008200010929E0110929F011092A0011092A101BE
:10083000109223021092220210922502109224029A
:10084000109227021092260290E080E00E947F0220
:100850002091220230912302811113C0211531050C
:1008600019F0C9010E94FF06109223021092220281
:100870001092270210922602109225021092240252
:10088000089510922702109226026AE171E0C901D0
:100890000C944E08CF93DF93CDB7DEB7A1970FB678
:1008A000F894DEBF0FBECDBF789484B5826084BD5E
:1008B00084B5816084BD85B5826085BD85B5816064
:1008C00085BD80916E00816080936E0010928100E2
:1008D000809181008260809381008091810081609D
:1008E000809381008091800081608093800080915E
:1008F000B10084608093B1008091B00081608093EA
:10090000B00080917A00846080937A0080917A00B0
:10091000826080937A0080917A00816080937A006F
:1009200080917A00806880937A001092C100E091F3
:100930009501F091960182E08083E0919101F09120
:1009400092011082E0919301F09194018FEC8083E9
:1009500010929D01E0919901F0919A0186E08083C7
:10096000E0919701F0919801808180618083E0910E
:100970009701F0919801808188608083E0919701D0
:10098000F0919801808180688083E0919701F091D7
:10099000980180818F7D808384E00E94880082E0BE
:1009A0000E94880060E084E00E94A70060E082E08E
:1009B0000E94A7000E945002F894109280001092AA
:1009C0008100109285001092840089E09DE390934D
:1009D00089008093880080918100886080938100E5
:1009E000809181008460809381008091810081608A
:1009F00080938100789482E4782E9AE0892E912C5D
:100A0000A12CB12C2AE0E22EF12C30E9C32EDD24FA
:100A1000D39480917B018823C1F18091260290912B
:100A20002702892B31F0E0912202F09123023097C6
:100A300021F410927801E8E7F1E0108110927B0137
:100A400090E080E00E947F022091220230912302F8
:100A5000811123C02115310519F0C9010E94FF063B
:100A60001092230210922202109227021092260264
:100A70001092250210922402133509F483C0BCF4AD
:100A80001C3409F49BC01D34E1F00E94B701882397
:100A900009F4BFCF0E94AD02BCCF10922702109282
:100AA00026026AE171E0C9010E944E08E5CF1435C3
:100AB00009F49EC0183549F70E9450028BE491E07A
:100AC0007AC070927C0080917A00806480937A0072
:100AD00080917A0086FDFCCF80917800909179001A
:100AE00090937A01809379018BE191E00E946402F6
:100AF0002090790130907A01032C000C44085508AD
:100B000057FE2AC06DE285E891E00E94E3012227AA
:100B10003327A901221933094409550919A28E0165
:100B20000F5D1F4FCA01B901A50194010E943B0648
:100B3000605DF80162938F01211531054105510572
:100B400089F70115110519F0C8010E94640288E1B6
:100B500091E00E94640299CFA201910119A28E0135
:100B60000F5D1F4FCA01B901A50194010E943B0608
:100B7000605DF80162938F01211531054105510532
:100B800089F7DFCF80916F0010926F00109277018C
:100B900010927601F0927501E092740180916F00DD
:100BA000826080936F008EE191E00E9471020E944A
:100BB0005A0280E391E00E94710267CF80916F003A
:100BC00010926F001092770110927601D092750109
:100BD000C092740180916F00826080936F0082E305
:100BE00091E00E9471020E945A0289E491E0E3CFF1
:100BF0008DE491E0E0CF8091220290912302009752
:100C000011F00C94FF0608952F923F924F925F923D
:100C10006F927F928F929F92AF92BF92CF92DF920C
:100C2000EF92FF920F931F93CF93DF93CDB7DEB771
:100C3000CA1BDB0B0FB6F894DEBF0FBECDBF099405
:100C40002A88398848885F846E847D848C849B845C
:100C5000AA84B984C884DF80EE80FD800C811B816A
:100C6000AA81B981CE0FD11D0FB6F894DEBF0FBE99
:100C7000CDBFED010895A1E21A2EAA1BBB1BFD01F9
:100C80000DC0AA1FBB1FEE1FFF1FA217B307E4076B
:100C9000F50720F0A21BB30BE40BF50B661F771FC3
:100CA000881F991F1A9469F76095709580959095A3
:100CB0009B01AC01BD01CF010895EE0FFF1F059010
:100CC000F491E02D09940F931F93CF93DF9382301B
:100CD000910510F482E090E0E0912A02F0912B025D
:100CE00030E020E0B0E0A0E0309799F42115310524
:100CF00009F44AC0281B390B24303105D8F58A8104
:100D00009B816115710589F1FB0193838283FE014B
:100D100011C0408151810281138148175907E0F0C9
:100D20004817590799F4109761F012960C9312978F
:100D300013961C933296CF01DF91CF911F910F91A3
:100D4000089500932A0210932B02F4CF2115310548
:100D500051F04217530738F0A901DB019A01BD0198
:100D6000DF01F801C1CFEF01F9CF90932B028093FF
:100D70002A02CDCFFE01E20FF31F819391932250FF
:100D8000310939832883D7CF209128023091290255
:100D9000232B41F420910201309103013093290269
:100DA0002093280220910001309101012115310585
:100DB00041F42DB73EB74091040150910501241B29
:100DC000350BE0912802F0912902E217F307A0F415
:100DD0002E1B3F0B2817390778F0AC014E5F5F4F91
:100DE0002417350748F04E0F5F1F50932902409398
:100DF0002802819391939FCFF0E0E0E09CCFCF93C6
:100E0000DF930097E9F0FC01329713821282A091E0
:100E10002A02B0912B02ED0130E020E01097A1F4FE
:100E200020813181820F931F209128023091290265
:100E30002817390709F061C0F0932902E0932802CE
:100E4000DF91CF910895EA01CE17DF07E8F54A81D7
:100E50005B819E0141155105B1F7E901FB83EA83EE
:100E600049915991C40FD51FEC17FD0761F480819A
:100E700091810296840F951FE9019983888382816D
:100E800093819B838A83F0E0E0E012968D919C91A0
:100E900013970097B9F52D913C911197CD010296CA
:100EA000820F931F209128023091290228173907B9
:100EB00039F6309751F510922B0210922A02B09316
:100EC0002902A0932802BCCFD383C28340815181E1
:100ED000840F951FC817D90761F44E5F5F4F888153
:100EE0009981480F591F518340838A819B81938345
:100EF00082832115310509F0B0CFF0932B02E093E6
:100F00002A029ECFFD01DC01C0CF13821282D7CF0F
:100F1000B0E0A0E0EEE8F7E00C9406068C01009744
:100F200051F4CB010E9463068C01C801CDB7DEB736
:100F3000E0E10C942206FC01E60FF71F9C01225011
:100F40003109E217F30708F49DC0D901CD91DC9176
:100F50001197C617D70798F0C530D10530F3CE01E9
:100F600004978617970708F3C61BD70B2297C193E0
:100F7000D1936D937C93CF010E94FF06D6CF5B0186
:100F8000AC1ABD0A4C018C0E9D1EA0912A02B09194
:100F90002B02512C412CF12CE12C109731F5809132
:100FA0002802909129028815990509F05CC046161F
:100FB000570608F058C080910001909101010097F8
:100FC00041F48DB79EB74091040150910501841BF7
:100FD000950BE817F90708F055C0F0932902E09344
:100FE0002802F90171836083A0CF8D919C911197A4
:100FF00012966C90129713967C901397A815B905CA
:1010000059F56C0142E0C40ED11CCA14DB0420F176
:10101000AC014A195B09DA011296159780F06282D9
:10102000738251834083D9016D937C93E114F10461
:1010300071F0D7011396FC93EE93129776CF229618
:101040008C0F9D1FF90191838083F301EFCFF09303
:101050002B02E0932A0269CF4816590608F42C01A6
:101060007D01D3019ACFCB010E9463067C010097DA
:1010700049F0AE01B8010E944508C8010E94FF0670
:10108000870153CF10E000E050CFFB01DC0102C02C
:1010900001900D9241505040D8F70895FB01DC01BA
:1010A00001900D920020E1F7089510E0CDE5D0E029
:1010B00004C0FE010E945D062196CE35D107C9F716
:0410C000F894FFCFD2
:1010C40000002C02800000000000E3014D017A01C1
:1010D4003002AB0189019D010D0A004D3A005354C1
:1010E400415254494E47204558504F53555245009C
:1010F40053005354415254494E47204C4F4E4720BD
:101104004558504F53555245004C00580054004523
:1011140058504F535552452054494D452045584346
:1011240045444544205455524E494E47204F464667
:041134002E2E2E002D
:00000001FF
